{
  "_format": "hh-sol-artifact-1",
  "contractName": "DegenGamingToken",
  "sourceName": "contracts/DegenToken01.sol",
  "abi": [
    {
      "inputs": [],
      "stateMutability": "nonpayable",
      "type": "constructor"
    },
    {
      "anonymous": false,
      "inputs": [
        {
          "indexed": true,
          "internalType": "address",
          "name": "account",
          "type": "address"
        }
      ],
      "name": "AccountBlacklisted",
      "type": "event"
    },
    {
      "anonymous": false,
      "inputs": [
        {
          "indexed": true,
          "internalType": "address",
          "name": "account",
          "type": "address"
        }
      ],
      "name": "AccountUnblacklisted",
      "type": "event"
    },
    {
      "anonymous": false,
      "inputs": [
        {
          "indexed": true,
          "internalType": "address",
          "name": "owner",
          "type": "address"
        },
        {
          "indexed": true,
          "internalType": "address",
          "name": "spender",
          "type": "address"
        },
        {
          "indexed": false,
          "internalType": "uint256",
          "name": "value",
          "type": "uint256"
        }
      ],
      "name": "Approval",
      "type": "event"
    },
    {
      "anonymous": false,
      "inputs": [
        {
          "indexed": true,
          "internalType": "address",
          "name": "previousOwner",
          "type": "address"
        },
        {
          "indexed": true,
          "internalType": "address",
          "name": "newOwner",
          "type": "address"
        }
      ],
      "name": "OwnershipTransferred",
      "type": "event"
    },
    {
      "anonymous": false,
      "inputs": [
        {
          "indexed": false,
          "internalType": "address",
          "name": "account",
          "type": "address"
        }
      ],
      "name": "Paused",
      "type": "event"
    },
    {
      "anonymous": false,
      "inputs": [
        {
          "indexed": true,
          "internalType": "address",
          "name": "player",
          "type": "address"
        },
        {
          "indexed": false,
          "internalType": "string",
          "name": "itemName",
          "type": "string"
        }
      ],
      "name": "RewardRedeemed",
      "type": "event"
    },
    {
      "anonymous": false,
      "inputs": [
        {
          "indexed": true,
          "internalType": "address",
          "name": "to",
          "type": "address"
        },
        {
          "indexed": false,
          "internalType": "uint256",
          "name": "value",
          "type": "uint256"
        }
      ],
      "name": "TokensMinted",
      "type": "event"
    },
    {
      "anonymous": false,
      "inputs": [
        {
          "indexed": true,
          "internalType": "address",
          "name": "from",
          "type": "address"
        },
        {
          "indexed": true,
          "internalType": "address",
          "name": "to",
          "type": "address"
        },
        {
          "indexed": false,
          "internalType": "uint256",
          "name": "value",
          "type": "uint256"
        }
      ],
      "name": "Transfer",
      "type": "event"
    },
    {
      "anonymous": false,
      "inputs": [
        {
          "indexed": false,
          "internalType": "address",
          "name": "account",
          "type": "address"
        }
      ],
      "name": "Unpaused",
      "type": "event"
    },
    {
      "inputs": [
        {
          "internalType": "address",
          "name": "owner",
          "type": "address"
        },
        {
          "internalType": "address",
          "name": "spender",
          "type": "address"
        }
      ],
      "name": "allowance",
      "outputs": [
        {
          "internalType": "uint256",
          "name": "",
          "type": "uint256"
        }
      ],
      "stateMutability": "view",
      "type": "function"
    },
    {
      "inputs": [
        {
          "internalType": "address",
          "name": "spender",
          "type": "address"
        },
        {
          "internalType": "uint256",
          "name": "amount",
          "type": "uint256"
        }
      ],
      "name": "approve",
      "outputs": [
        {
          "internalType": "bool",
          "name": "",
          "type": "bool"
        }
      ],
      "stateMutability": "nonpayable",
      "type": "function"
    },
    {
      "inputs": [
        {
          "internalType": "address",
          "name": "account",
          "type": "address"
        }
      ],
      "name": "balanceOf",
      "outputs": [
        {
          "internalType": "uint256",
          "name": "",
          "type": "uint256"
        }
      ],
      "stateMutability": "view",
      "type": "function"
    },
    {
      "inputs": [
        {
          "internalType": "address",
          "name": "account",
          "type": "address"
        }
      ],
      "name": "blacklistAccount",
      "outputs": [],
      "stateMutability": "nonpayable",
      "type": "function"
    },
    {
      "inputs": [
        {
          "internalType": "uint256",
          "name": "amount",
          "type": "uint256"
        }
      ],
      "name": "burn",
      "outputs": [],
      "stateMutability": "nonpayable",
      "type": "function"
    },
    {
      "inputs": [
        {
          "internalType": "address",
          "name": "account",
          "type": "address"
        },
        {
          "internalType": "uint256",
          "name": "amount",
          "type": "uint256"
        }
      ],
      "name": "burnFrom",
      "outputs": [],
      "stateMutability": "nonpayable",
      "type": "function"
    },
    {
      "inputs": [],
      "name": "decimals",
      "outputs": [
        {
          "internalType": "uint8",
          "name": "",
          "type": "uint8"
        }
      ],
      "stateMutability": "view",
      "type": "function"
    },
    {
      "inputs": [
        {
          "internalType": "address",
          "name": "spender",
          "type": "address"
        },
        {
          "internalType": "uint256",
          "name": "subtractedValue",
          "type": "uint256"
        }
      ],
      "name": "decreaseAllowance",
      "outputs": [
        {
          "internalType": "bool",
          "name": "",
          "type": "bool"
        }
      ],
      "stateMutability": "nonpayable",
      "type": "function"
    },
    {
      "inputs": [
        {
          "internalType": "address",
          "name": "spender",
          "type": "address"
        },
        {
          "internalType": "uint256",
          "name": "addedValue",
          "type": "uint256"
        }
      ],
      "name": "increaseAllowance",
      "outputs": [
        {
          "internalType": "bool",
          "name": "",
          "type": "bool"
        }
      ],
      "stateMutability": "nonpayable",
      "type": "function"
    },
    {
      "inputs": [
        {
          "internalType": "address",
          "name": "account",
          "type": "address"
        }
      ],
      "name": "isBlacklisted",
      "outputs": [
        {
          "internalType": "bool",
          "name": "",
          "type": "bool"
        }
      ],
      "stateMutability": "view",
      "type": "function"
    },
    {
      "inputs": [
        {
          "internalType": "address",
          "name": "to",
          "type": "address"
        },
        {
          "internalType": "uint256",
          "name": "amount",
          "type": "uint256"
        }
      ],
      "name": "mintTokens",
      "outputs": [],
      "stateMutability": "nonpayable",
      "type": "function"
    },
    {
      "inputs": [],
      "name": "name",
      "outputs": [
        {
          "internalType": "string",
          "name": "",
          "type": "string"
        }
      ],
      "stateMutability": "view",
      "type": "function"
    },
    {
      "inputs": [],
      "name": "owner",
      "outputs": [
        {
          "internalType": "address",
          "name": "",
          "type": "address"
        }
      ],
      "stateMutability": "view",
      "type": "function"
    },
    {
      "inputs": [],
      "name": "pause",
      "outputs": [],
      "stateMutability": "nonpayable",
      "type": "function"
    },
    {
      "inputs": [],
      "name": "paused",
      "outputs": [
        {
          "internalType": "bool",
          "name": "",
          "type": "bool"
        }
      ],
      "stateMutability": "view",
      "type": "function"
    },
    {
      "inputs": [
        {
          "internalType": "uint256",
          "name": "choice",
          "type": "uint256"
        }
      ],
      "name": "redeemReward",
      "outputs": [],
      "stateMutability": "nonpayable",
      "type": "function"
    },
    {
      "inputs": [],
      "name": "renounceOwnership",
      "outputs": [],
      "stateMutability": "nonpayable",
      "type": "function"
    },
    {
      "inputs": [],
      "name": "rewardsStore",
      "outputs": [
        {
          "internalType": "string",
          "name": "",
          "type": "string"
        }
      ],
      "stateMutability": "pure",
      "type": "function"
    },
    {
      "inputs": [],
      "name": "symbol",
      "outputs": [
        {
          "internalType": "string",
          "name": "",
          "type": "string"
        }
      ],
      "stateMutability": "view",
      "type": "function"
    },
    {
      "inputs": [],
      "name": "totalSupply",
      "outputs": [
        {
          "internalType": "uint256",
          "name": "",
          "type": "uint256"
        }
      ],
      "stateMutability": "view",
      "type": "function"
    },
    {
      "inputs": [
        {
          "internalType": "address",
          "name": "recipient",
          "type": "address"
        },
        {
          "internalType": "uint256",
          "name": "amount",
          "type": "uint256"
        }
      ],
      "name": "transfer",
      "outputs": [
        {
          "internalType": "bool",
          "name": "",
          "type": "bool"
        }
      ],
      "stateMutability": "nonpayable",
      "type": "function"
    },
    {
      "inputs": [
        {
          "internalType": "address",
          "name": "sender",
          "type": "address"
        },
        {
          "internalType": "address",
          "name": "recipient",
          "type": "address"
        },
        {
          "internalType": "uint256",
          "name": "amount",
          "type": "uint256"
        }
      ],
      "name": "transferFrom",
      "outputs": [
        {
          "internalType": "bool",
          "name": "",
          "type": "bool"
        }
      ],
      "stateMutability": "nonpayable",
      "type": "function"
    },
    {
      "inputs": [
        {
          "internalType": "address",
          "name": "newOwner",
          "type": "address"
        }
      ],
      "name": "transferOwnership",
      "outputs": [],
      "stateMutability": "nonpayable",
      "type": "function"
    },
    {
      "inputs": [
        {
          "internalType": "address",
          "name": "account",
          "type": "address"
        }
      ],
      "name": "unblacklistAccount",
      "outputs": [],
      "stateMutability": "nonpayable",
      "type": "function"
    },
    {
      "inputs": [],
      "name": "unpause",
      "outputs": [],
      "stateMutability": "nonpayable",
      "type": "function"
    }
  ],
  "bytecode": "0x60806040523480156200001157600080fd5b506040518060400160405280601081526020017f446567656e47616d696e67546f6b656e000000000000000000000000000000008152506040518060400160405280600381526020017f444754000000000000000000000000000000000000000000000000000000000081525081600390816200008f91906200042d565b508060049081620000a191906200042d565b505050620000c4620000b8620000e560201b60201c565b620000ed60201b60201c565b6000600560146101000a81548160ff02191690831515021790555062000514565b600033905090565b6000600560009054906101000a900473ffffffffffffffffffffffffffffffffffffffff16905081600560006101000a81548173ffffffffffffffffffffffffffffffffffffffff021916908373ffffffffffffffffffffffffffffffffffffffff1602179055508173ffffffffffffffffffffffffffffffffffffffff168173ffffffffffffffffffffffffffffffffffffffff167f8be0079c531659141344cd1fd0a4f28419497f9722a3daafe3b4186f6b6457e060405160405180910390a35050565b600081519050919050565b7f4e487b7100000000000000000000000000000000000000000000000000000000600052604160045260246000fd5b7f4e487b7100000000000000000000000000000000000000000000000000000000600052602260045260246000fd5b600060028204905060018216806200023557607f821691505b6020821081036200024b576200024a620001ed565b5b50919050565b60008190508160005260206000209050919050565b60006020601f8301049050919050565b600082821b905092915050565b600060088302620002b57fffffffffffffffffffffffffffffffffffffffffffffffffffffffffffffffff8262000276565b620002c1868362000276565b95508019841693508086168417925050509392505050565b6000819050919050565b6000819050919050565b60006200030e620003086200030284620002d9565b620002e3565b620002d9565b9050919050565b6000819050919050565b6200032a83620002ed565b62000342620003398262000315565b84845462000283565b825550505050565b600090565b620003596200034a565b620003668184846200031f565b505050565b5b818110156200038e57620003826000826200034f565b6001810190506200036c565b5050565b601f821115620003dd57620003a78162000251565b620003b28462000266565b81016020851015620003c2578190505b620003da620003d18562000266565b8301826200036b565b50505b505050565b600082821c905092915050565b60006200040260001984600802620003e2565b1980831691505092915050565b60006200041d8383620003ef565b9150826002028217905092915050565b6200043882620001b3565b67ffffffffffffffff811115620004545762000453620001be565b5b6200046082546200021c565b6200046d82828562000392565b600060209050601f831160018114620004a5576000841562000490578287015190505b6200049c85826200040f565b8655506200050c565b601f198416620004b58662000251565b60005b82811015620004df57848901518255600182019150602085019450602081019050620004b8565b86831015620004ff5784890151620004fb601f891682620003ef565b8355505b6001600288020188555050505b505050505050565b612a0b80620005246000396000f3fe608060405234801561001057600080fd5b50600436106101735760003560e01c8063715018a6116100de578063a9059cbb11610097578063dd62ed3e11610071578063dd62ed3e14610414578063f0dda65c14610444578063f2fde38b14610460578063fe575a871461047c57610173565b8063a9059cbb146103aa578063b855150d146103da578063d37b34d7146103f857610173565b8063715018a61461030e57806379cc6790146103185780638456cb59146103345780638da5cb5b1461033e57806395d89b411461035c578063a457c2d71461037a57610173565b80633f4ba83a116101305780633f4ba83a1461026257806342966c681461026c57806351a71b17146102885780635c975abb146102a45780636d7331ed146102c257806370a08231146102de57610173565b806306fdde0314610178578063095ea7b31461019657806318160ddd146101c657806323b872dd146101e4578063313ce567146102145780633950935114610232575b600080fd5b6101806104ac565b60405161018d9190611a82565b60405180910390f35b6101b060048036038101906101ab9190611b3d565b61053e565b6040516101bd9190611b98565b60405180910390f35b6101ce610561565b6040516101db9190611bc2565b60405180910390f35b6101fe60048036038101906101f99190611bdd565b61056b565b60405161020b9190611b98565b60405180910390f35b61021c61061b565b6040516102299190611c4c565b60405180910390f35b61024c60048036038101906102479190611b3d565b610624565b6040516102599190611b98565b60405180910390f35b61026a61065b565b005b61028660048036038101906102819190611c67565b61066d565b005b6102a2600480360381019061029d9190611c67565b610681565b005b6102ac6108fc565b6040516102b99190611b98565b60405180910390f35b6102dc60048036038101906102d79190611c94565b610913565b005b6102f860048036038101906102f39190611c94565b6109b9565b6040516103059190611bc2565b60405180910390f35b610316610a01565b005b610332600480360381019061032d9190611b3d565b610a15565b005b61033c610a35565b005b610346610a47565b6040516103539190611cd0565b60405180910390f35b610364610a71565b6040516103719190611a82565b60405180910390f35b610394600480360381019061038f9190611b3d565b610b03565b6040516103a19190611b98565b60405180910390f35b6103c460048036038101906103bf9190611b3d565b610b7a565b6040516103d19190611b98565b60405180910390f35b6103e2610c28565b6040516103ef9190611a82565b60405180910390f35b610412600480360381019061040d9190611c94565b610c48565b005b61042e60048036038101906104299190611ceb565b610cee565b60405161043b9190611bc2565b60405180910390f35b61045e60048036038101906104599190611b3d565b610d75565b005b61047a60048036038101906104759190611c94565b610e2a565b005b61049660048036038101906104919190611c94565b610ead565b6040516104a39190611b98565b60405180910390f35b6060600380546104bb90611d5a565b80601f01602080910402602001604051908101604052809291908181526020018280546104e790611d5a565b80156105345780601f1061050957610100808354040283529160200191610534565b820191906000526020600020905b81548152906001019060200180831161051757829003601f168201915b5050505050905090565b600080610549610f03565b9050610556818585610f0b565b600191505092915050565b6000600254905090565b60006105756110d4565b61057e84610ead565b156105be576040517f08c379a00000000000000000000000000000000000000000000000000000000081526004016105b590611dd7565b60405180910390fd5b6105c783610ead565b15610607576040517f08c379a00000000000000000000000000000000000000000000000000000000081526004016105fe90611e69565b60405180910390fd5b61061284848461111e565b90509392505050565b60006012905090565b60008061062f610f03565b90506106508185856106418589610cee565b61064b9190611eb8565b610f0b565b600191505092915050565b61066361114d565b61066b6111cb565b565b61067e610678610f03565b8261122e565b50565b6106896110d4565b60038111156106cd576040517f08c379a00000000000000000000000000000000000000000000000000000000081526004016106c490611f38565b60405180910390fd5b60018103610787576103206106e1336109b9565b1015610722576040517f08c379a000000000000000000000000000000000000000000000000000000000815260040161071990611fa4565b60405180910390fd5b61073561072d610a47565b610320610b7a565b503373ffffffffffffffffffffffffffffffffffffffff167f3a947a71c0a1dd8c05589d8c8863c48c5d90e1b13aba855570bc3972e4e4f0c160405161077a90612010565b60405180910390a26108f9565b600281036108415761025861079b336109b9565b10156107dc576040517f08c379a00000000000000000000000000000000000000000000000000000000081526004016107d390611fa4565b60405180910390fd5b6107ef6107e7610a47565b610258610b7a565b503373ffffffffffffffffffffffffffffffffffffffff167f3a947a71c0a1dd8c05589d8c8863c48c5d90e1b13aba855570bc3972e4e4f0c16040516108349061207c565b60405180910390a26108f8565b600381036108f757610190610855336109b9565b1015610896576040517f08c379a000000000000000000000000000000000000000000000000000000000815260040161088d90611fa4565b60405180910390fd5b6108a96108a1610a47565b610190610b7a565b503373ffffffffffffffffffffffffffffffffffffffff167f3a947a71c0a1dd8c05589d8c8863c48c5d90e1b13aba855570bc3972e4e4f0c16040516108ee906120e8565b60405180910390a25b5b5b50565b6000600560149054906101000a900460ff16905090565b61091b61114d565b6000600660008373ffffffffffffffffffffffffffffffffffffffff1673ffffffffffffffffffffffffffffffffffffffff16815260200190815260200160002060006101000a81548160ff0219169083151502179055508073ffffffffffffffffffffffffffffffffffffffff167fedfd4cab3bb8cab50f21bee8952366416fc6dcc47db7e9cc3f7c07aca35569c360405160405180910390a250565b60008060008373ffffffffffffffffffffffffffffffffffffffff1673ffffffffffffffffffffffffffffffffffffffff168152602001908152602001600020549050919050565b610a0961114d565b610a1360006113fb565b565b610a2782610a21610f03565b836114c1565b610a31828261122e565b5050565b610a3d61114d565b610a4561154d565b565b6000600560009054906101000a900473ffffffffffffffffffffffffffffffffffffffff16905090565b606060048054610a8090611d5a565b80601f0160208091040260200160405190810160405280929190818152602001828054610aac90611d5a565b8015610af95780601f10610ace57610100808354040283529160200191610af9565b820191906000526020600020905b815481529060010190602001808311610adc57829003601f168201915b5050505050905090565b600080610b0e610f03565b90506000610b1c8286610cee565b905083811015610b61576040517f08c379a0000000000000000000000000000000000000000000000000000000008152600401610b589061217a565b60405180910390fd5b610b6e8286868403610f0b565b60019250505092915050565b6000610b846110d4565b610b8d33610ead565b15610bcd576040517f08c379a0000000000000000000000000000000000000000000000000000000008152600401610bc490611dd7565b60405180910390fd5b610bd683610ead565b15610c16576040517f08c379a0000000000000000000000000000000000000000000000000000000008152600401610c0d9061220c565b60405180910390fd5b610c2083836115b0565b905092915050565b60606040518060a00160405280606b815260200161296b606b9139905090565b610c5061114d565b6001600660008373ffffffffffffffffffffffffffffffffffffffff1673ffffffffffffffffffffffffffffffffffffffff16815260200190815260200160002060006101000a81548160ff0219169083151502179055508073ffffffffffffffffffffffffffffffffffffffff167f571f7b497ee6f6b62bf6238259f34ef72ad585355587cf9feed80bb4a2b5ce9360405160405180910390a250565b6000600160008473ffffffffffffffffffffffffffffffffffffffff1673ffffffffffffffffffffffffffffffffffffffff16815260200190815260200160002060008373ffffffffffffffffffffffffffffffffffffffff1673ffffffffffffffffffffffffffffffffffffffff16815260200190815260200160002054905092915050565b610d7d61114d565b610d856110d4565b610d8e82610ead565b15610dce576040517f08c379a0000000000000000000000000000000000000000000000000000000008152600401610dc59061229e565b60405180910390fd5b610dd882826115d3565b8173ffffffffffffffffffffffffffffffffffffffff167f3f2c9d57c068687834f0de942a9babb9e5acab57d516d3480a3c16ee165a427382604051610e1e9190611bc2565b60405180910390a25050565b610e3261114d565b600073ffffffffffffffffffffffffffffffffffffffff168173ffffffffffffffffffffffffffffffffffffffff1603610ea1576040517f08c379a0000000000000000000000000000000000000000000000000000000008152600401610e9890612330565b60405180910390fd5b610eaa816113fb565b50565b6000600660008373ffffffffffffffffffffffffffffffffffffffff1673ffffffffffffffffffffffffffffffffffffffff16815260200190815260200160002060009054906101000a900460ff169050919050565b600033905090565b600073ffffffffffffffffffffffffffffffffffffffff168373ffffffffffffffffffffffffffffffffffffffff1603610f7a576040517f08c379a0000000000000000000000000000000000000000000000000000000008152600401610f71906123c2565b60405180910390fd5b600073ffffffffffffffffffffffffffffffffffffffff168273ffffffffffffffffffffffffffffffffffffffff1603610fe9576040517f08c379a0000000000000000000000000000000000000000000000000000000008152600401610fe090612454565b60405180910390fd5b80600160008573ffffffffffffffffffffffffffffffffffffffff1673ffffffffffffffffffffffffffffffffffffffff16815260200190815260200160002060008473ffffffffffffffffffffffffffffffffffffffff1673ffffffffffffffffffffffffffffffffffffffff168152602001908152602001600020819055508173ffffffffffffffffffffffffffffffffffffffff168373ffffffffffffffffffffffffffffffffffffffff167f8c5be1e5ebec7d5bd14f71427d1e84f3dd0314c0f7b2291e5b200ac8c7c3b925836040516110c79190611bc2565b60405180910390a3505050565b6110dc6108fc565b1561111c576040517f08c379a0000000000000000000000000000000000000000000000000000000008152600401611113906124c0565b60405180910390fd5b565b600080611129610f03565b90506111368582856114c1565b611141858585611729565b60019150509392505050565b611155610f03565b73ffffffffffffffffffffffffffffffffffffffff16611173610a47565b73ffffffffffffffffffffffffffffffffffffffff16146111c9576040517f08c379a00000000000000000000000000000000000000000000000000000000081526004016111c09061252c565b60405180910390fd5b565b6111d361199f565b6000600560146101000a81548160ff0219169083151502179055507f5db9ee0a495bf2e6ff9c91a7834c1ba4fdd244a5e8aa4e537bd38aeae4b073aa611217610f03565b6040516112249190611cd0565b60405180910390a1565b600073ffffffffffffffffffffffffffffffffffffffff168273ffffffffffffffffffffffffffffffffffffffff160361129d576040517f08c379a0000000000000000000000000000000000000000000000000000000008152600401611294906125be565b60405180910390fd5b6112a9826000836119e8565b60008060008473ffffffffffffffffffffffffffffffffffffffff1673ffffffffffffffffffffffffffffffffffffffff1681526020019081526020016000205490508181101561132f576040517f08c379a000000000000000000000000000000000000000000000000000000000815260040161132690612650565b60405180910390fd5b8181036000808573ffffffffffffffffffffffffffffffffffffffff1673ffffffffffffffffffffffffffffffffffffffff1681526020019081526020016000208190555081600260008282540392505081905550600073ffffffffffffffffffffffffffffffffffffffff168373ffffffffffffffffffffffffffffffffffffffff167fddf252ad1be2c89b69c2b068fc378daa952ba7f163c4a11628f55a4df523b3ef846040516113e29190611bc2565b60405180910390a36113f6836000846119ed565b505050565b6000600560009054906101000a900473ffffffffffffffffffffffffffffffffffffffff16905081600560006101000a81548173ffffffffffffffffffffffffffffffffffffffff021916908373ffffffffffffffffffffffffffffffffffffffff1602179055508173ffffffffffffffffffffffffffffffffffffffff168173ffffffffffffffffffffffffffffffffffffffff167f8be0079c531659141344cd1fd0a4f28419497f9722a3daafe3b4186f6b6457e060405160405180910390a35050565b60006114cd8484610cee565b90507fffffffffffffffffffffffffffffffffffffffffffffffffffffffffffffffff81146115475781811015611539576040517f08c379a0000000000000000000000000000000000000000000000000000000008152600401611530906126bc565b60405180910390fd5b6115468484848403610f0b565b5b50505050565b6115556110d4565b6001600560146101000a81548160ff0219169083151502179055507f62e78cea01bee320cd4e420270b5ea74000d11b0c9f74754ebdbfc544b05a258611599610f03565b6040516115a69190611cd0565b60405180910390a1565b6000806115bb610f03565b90506115c8818585611729565b600191505092915050565b600073ffffffffffffffffffffffffffffffffffffffff168273ffffffffffffffffffffffffffffffffffffffff1603611642576040517f08c379a000000000000000000000000000000000000000000000000000000000815260040161163990612728565b60405180910390fd5b61164e600083836119e8565b80600260008282546116609190611eb8565b92505081905550806000808473ffffffffffffffffffffffffffffffffffffffff1673ffffffffffffffffffffffffffffffffffffffff168152602001908152602001600020600082825401925050819055508173ffffffffffffffffffffffffffffffffffffffff16600073ffffffffffffffffffffffffffffffffffffffff167fddf252ad1be2c89b69c2b068fc378daa952ba7f163c4a11628f55a4df523b3ef836040516117119190611bc2565b60405180910390a3611725600083836119ed565b5050565b600073ffffffffffffffffffffffffffffffffffffffff168373ffffffffffffffffffffffffffffffffffffffff1603611798576040517f08c379a000000000000000000000000000000000000000000000000000000000815260040161178f906127ba565b60405180910390fd5b600073ffffffffffffffffffffffffffffffffffffffff168273ffffffffffffffffffffffffffffffffffffffff1603611807576040517f08c379a00000000000000000000000000000000000000000000000000000000081526004016117fe9061284c565b60405180910390fd5b6118128383836119e8565b60008060008573ffffffffffffffffffffffffffffffffffffffff1673ffffffffffffffffffffffffffffffffffffffff16815260200190815260200160002054905081811015611898576040517f08c379a000000000000000000000000000000000000000000000000000000000815260040161188f906128de565b60405180910390fd5b8181036000808673ffffffffffffffffffffffffffffffffffffffff1673ffffffffffffffffffffffffffffffffffffffff16815260200190815260200160002081905550816000808573ffffffffffffffffffffffffffffffffffffffff1673ffffffffffffffffffffffffffffffffffffffff168152602001908152602001600020600082825401925050819055508273ffffffffffffffffffffffffffffffffffffffff168473ffffffffffffffffffffffffffffffffffffffff167fddf252ad1be2c89b69c2b068fc378daa952ba7f163c4a11628f55a4df523b3ef846040516119869190611bc2565b60405180910390a36119998484846119ed565b50505050565b6119a76108fc565b6119e6576040517f08c379a00000000000000000000000000000000000000000000000000000000081526004016119dd9061294a565b60405180910390fd5b565b505050565b505050565b600081519050919050565b600082825260208201905092915050565b60005b83811015611a2c578082015181840152602081019050611a11565b60008484015250505050565b6000601f19601f8301169050919050565b6000611a54826119f2565b611a5e81856119fd565b9350611a6e818560208601611a0e565b611a7781611a38565b840191505092915050565b60006020820190508181036000830152611a9c8184611a49565b905092915050565b600080fd5b600073ffffffffffffffffffffffffffffffffffffffff82169050919050565b6000611ad482611aa9565b9050919050565b611ae481611ac9565b8114611aef57600080fd5b50565b600081359050611b0181611adb565b92915050565b6000819050919050565b611b1a81611b07565b8114611b2557600080fd5b50565b600081359050611b3781611b11565b92915050565b60008060408385031215611b5457611b53611aa4565b5b6000611b6285828601611af2565b9250506020611b7385828601611b28565b9150509250929050565b60008115159050919050565b611b9281611b7d565b82525050565b6000602082019050611bad6000830184611b89565b92915050565b611bbc81611b07565b82525050565b6000602082019050611bd76000830184611bb3565b92915050565b600080600060608486031215611bf657611bf5611aa4565b5b6000611c0486828701611af2565b9350506020611c1586828701611af2565b9250506040611c2686828701611b28565b9150509250925092565b600060ff82169050919050565b611c4681611c30565b82525050565b6000602082019050611c616000830184611c3d565b92915050565b600060208284031215611c7d57611c7c611aa4565b5b6000611c8b84828501611b28565b91505092915050565b600060208284031215611caa57611ca9611aa4565b5b6000611cb884828501611af2565b91505092915050565b611cca81611ac9565b82525050565b6000602082019050611ce56000830184611cc1565b92915050565b60008060408385031215611d0257611d01611aa4565b5b6000611d1085828601611af2565b9250506020611d2185828601611af2565b9150509250929050565b7f4e487b7100000000000000000000000000000000000000000000000000000000600052602260045260246000fd5b60006002820490506001821680611d7257607f821691505b602082108103611d8557611d84611d2b565b5b50919050565b7f6163636f756e74206f662073656e64657220697320626c61636b6c6973746564600082015250565b6000611dc16020836119fd565b9150611dcc82611d8b565b602082019050919050565b60006020820190508181036000830152611df081611db4565b9050919050565b7f6163636f756e74206f6620726563656970656e7420697320626c61636b6c697360008201527f7465640000000000000000000000000000000000000000000000000000000000602082015250565b6000611e536023836119fd565b9150611e5e82611df7565b604082019050919050565b60006020820190508181036000830152611e8281611e46565b9050919050565b7f4e487b7100000000000000000000000000000000000000000000000000000000600052601160045260246000fd5b6000611ec382611b07565b9150611ece83611b07565b9250828201905080821115611ee657611ee5611e89565b5b92915050565b7f496e76616c69642073656c656374696f6e000000000000000000000000000000600082015250565b6000611f226011836119fd565b9150611f2d82611eec565b602082019050919050565b60006020820190508181036000830152611f5181611f15565b9050919050565b7f4e6f7420656e6f7567682062616c616e63650000000000000000000000000000600082015250565b6000611f8e6012836119fd565b9150611f9982611f58565b602082019050919050565b60006020820190508181036000830152611fbd81611f81565b9050919050565b7f4176656e676572732077617272696f7200000000000000000000000000000000600082015250565b6000611ffa6010836119fd565b915061200582611fc4565b602082019050919050565b6000602082019050818103600083015261202981611fed565b9050919050565b7f41726d6f757220736869656c6400000000000000000000000000000000000000600082015250565b6000612066600d836119fd565b915061207182612030565b602082019050919050565b6000602082019050818103600083015261209581612059565b9050919050565b7f706f69736e6f7573206172726f77000000000000000000000000000000000000600082015250565b60006120d2600e836119fd565b91506120dd8261209c565b602082019050919050565b60006020820190508181036000830152612101816120c5565b9050919050565b7f45524332303a2064656372656173656420616c6c6f77616e63652062656c6f7760008201527f207a65726f000000000000000000000000000000000000000000000000000000602082015250565b60006121646025836119fd565b915061216f82612108565b604082019050919050565b6000602082019050818103600083015261219381612157565b9050919050565b7f526563697069656e742773206163636f756e7420697320626c61636b6c69737460008201527f6564000000000000000000000000000000000000000000000000000000000000602082015250565b60006121f66022836119fd565b91506122018261219a565b604082019050919050565b60006020820190508181036000830152612225816121e9565b9050919050565b7f5468697320706c617965722773206163636f756e7420686173206265656e206260008201527f6c61636b6c69737465642064756520746f206d6973636f6e6475637400000000602082015250565b6000612288603c836119fd565b91506122938261222c565b604082019050919050565b600060208201905081810360008301526122b78161227b565b9050919050565b7f4f776e61626c653a206e6577206f776e657220697320746865207a65726f206160008201527f6464726573730000000000000000000000000000000000000000000000000000602082015250565b600061231a6026836119fd565b9150612325826122be565b604082019050919050565b600060208201905081810360008301526123498161230d565b9050919050565b7f45524332303a20617070726f76652066726f6d20746865207a65726f2061646460008201527f7265737300000000000000000000000000000000000000000000000000000000602082015250565b60006123ac6024836119fd565b91506123b782612350565b604082019050919050565b600060208201905081810360008301526123db8161239f565b9050919050565b7f45524332303a20617070726f766520746f20746865207a65726f20616464726560008201527f7373000000000000000000000000000000000000000000000000000000000000602082015250565b600061243e6022836119fd565b9150612449826123e2565b604082019050919050565b6000602082019050818103600083015261246d81612431565b9050919050565b7f5061757361626c653a2070617573656400000000000000000000000000000000600082015250565b60006124aa6010836119fd565b91506124b582612474565b602082019050919050565b600060208201905081810360008301526124d98161249d565b9050919050565b7f4f776e61626c653a2063616c6c6572206973206e6f7420746865206f776e6572600082015250565b60006125166020836119fd565b9150612521826124e0565b602082019050919050565b6000602082019050818103600083015261254581612509565b9050919050565b7f45524332303a206275726e2066726f6d20746865207a65726f2061646472657360008201527f7300000000000000000000000000000000000000000000000000000000000000602082015250565b60006125a86021836119fd565b91506125b38261254c565b604082019050919050565b600060208201905081810360008301526125d78161259b565b9050919050565b7f45524332303a206275726e20616d6f756e7420657863656564732062616c616e60008201527f6365000000000000000000000000000000000000000000000000000000000000602082015250565b600061263a6022836119fd565b9150612645826125de565b604082019050919050565b600060208201905081810360008301526126698161262d565b9050919050565b7f45524332303a20696e73756666696369656e7420616c6c6f77616e6365000000600082015250565b60006126a6601d836119fd565b91506126b182612670565b602082019050919050565b600060208201905081810360008301526126d581612699565b9050919050565b7f45524332303a206d696e7420746f20746865207a65726f206164647265737300600082015250565b6000612712601f836119fd565b915061271d826126dc565b602082019050919050565b6000602082019050818103600083015261274181612705565b9050919050565b7f45524332303a207472616e736665722066726f6d20746865207a65726f20616460008201527f6472657373000000000000000000000000000000000000000000000000000000602082015250565b60006127a46025836119fd565b91506127af82612748565b604082019050919050565b600060208201905081810360008301526127d381612797565b9050919050565b7f45524332303a207472616e7366657220746f20746865207a65726f206164647260008201527f6573730000000000000000000000000000000000000000000000000000000000602082015250565b60006128366023836119fd565b9150612841826127da565b604082019050919050565b6000602082019050818103600083015261286581612829565b9050919050565b7f45524332303a207472616e7366657220616d6f756e742065786365656473206260008201527f616c616e63650000000000000000000000000000000000000000000000000000602082015250565b60006128c86026836119fd565b91506128d38261286c565b604082019050919050565b600060208201905081810360008301526128f7816128bb565b9050919050565b7f5061757361626c653a206e6f7420706175736564000000000000000000000000600082015250565b60006129346014836119fd565b915061293f826128fe565b602082019050919050565b6000602082019050818103600083015261296381612927565b905091905056fe312e204176656e6765722077617272696f72202876616c7565203d2038303020444754290a322e2041726d6f757220736869656c64202876616c7565203d2036303020444754290a332e20706f69736e6f7573206172726f77202876616c7565203d203430302044475429a26469706673582212204d4dc38f442c7756773c7f7d710bf378083f3e17d45741ca458b34f402a748df64736f6c63430008120033",
  "linkReferences": {},
  "deployedLinkReferences": {}
}